{
  "_format": "hh-sol-artifact-1",
  "contractName": "IPFSMapping",
  "sourceName": "contracts/IPFSMapping.sol",
  "abi": [
    {
      "inputs": [
        {
          "internalType": "address",
          "name": "",
          "type": "address"
        }
      ],
      "name": "data",
      "outputs": [
        {
          "internalType": "bytes32",
          "name": "",
          "type": "bytes32"
        }
      ],
      "stateMutability": "view",
      "type": "function"
    },
    {
      "inputs": [],
      "name": "remove",
      "outputs": [],
      "stateMutability": "nonpayable",
      "type": "function"
    },
    {
      "inputs": [
        {
          "internalType": "bytes32",
          "name": "hash",
          "type": "bytes32"
        }
      ],
      "name": "set",
      "outputs": [],
      "stateMutability": "nonpayable",
      "type": "function"
    }
  ],
  "bytecode": "0x608060405234801561001057600080fd5b50610291806100206000396000f3fe608060405234801561001057600080fd5b50600436106100415760003560e01c8063a7f4377914610046578063b90d3d0c14610050578063db80813f14610080575b600080fd5b61004e61009c565b005b61006a600480360381019061006591906101a1565b6100e0565b60405161007791906101e7565b60405180910390f35b61009a6004803603810190610095919061022e565b6100f8565b005b6000803373ffffffffffffffffffffffffffffffffffffffff1673ffffffffffffffffffffffffffffffffffffffff16815260200190815260200160002060009055565b60006020528060005260406000206000915090505481565b806000803373ffffffffffffffffffffffffffffffffffffffff1673ffffffffffffffffffffffffffffffffffffffff1681526020019081526020016000208190555050565b600080fd5b600073ffffffffffffffffffffffffffffffffffffffff82169050919050565b600061016e82610143565b9050919050565b61017e81610163565b811461018957600080fd5b50565b60008135905061019b81610175565b92915050565b6000602082840312156101b7576101b661013e565b5b60006101c58482850161018c565b91505092915050565b6000819050919050565b6101e1816101ce565b82525050565b60006020820190506101fc60008301846101d8565b92915050565b61020b816101ce565b811461021657600080fd5b50565b60008135905061022881610202565b92915050565b6000602082840312156102445761024361013e565b5b600061025284828501610219565b9150509291505056fea2646970667358221220cf6a1c554248f6afc2efbe9fe8b9e68b7167b5256fab91fa438204df046d9cef64736f6c63430008110033",
  "linkReferences": {},
  "deployedLinkReferences": {}
}